<!DOCTYPE html PUBLIC "-//W3C//DTD XHTML 1.0 Strict//EN"
        "http://www.w3.org/TR/xhtml1/DTD/xhtml1-strict.dtd">
<html>
<head>
<title></title>
<meta name="Author" content="Pavel Tisnovsky" />
<meta name="Generator" content="vim" />
<meta http-equiv="content-type" content="text/html; charset=utf-8" />
<style type="text/css">
         body {color:#000000; background:#ffffff;}
         h1  {font-family: arial, helvetica, sans-serif; color:#ffffff; background-color:#c00000; text-align:center; padding-left:1em}
         h2  {font-family: arial, helvetica, sans-serif; color:#ffffff; background-color:#0000c0; padding-left:1em; text-align:left}
         h3  {font-family: arial, helvetica, sans-serif; color:#000000; background-color:#c0c0c0; padding-left:1em; text-align:left}
         h4  {font-family: arial, helvetica, sans-serif; color:#000000; background-color:#e0e0e0; padding-left:1em; text-align:left}
         a   {font-family: arial, helvetica, sans-serif;}
         li  {font-family: arial, helvetica, sans-serif; color:#000000; text-align:justify; width:450px;}
         ol  {font-family: arial, helvetica, sans-serif; color:#000000; text-align:justify; width:450px;}
         ul  {font-family: arial, helvetica, sans-serif; color:#000000; text-align:justify; width:450px;}
         p   {font-family: arial, helvetica, sans-serif; color:#000000; text-align:justify;}
         pre {background:#e0e0e0}
</style>
</head>

<body>

<h1></h1>

<h3>Pavel Tišnovský</h3>

<p></p>

<h1>Úvodník</h1>

<p></p>



<h2>Obsah</h2>

<p><a href="#k01">*** 1. Standardní modul <strong>trace</strong></a></p>
<p><a href="#k02">*** 2. Zjištění počtu průchodů jednotlivými řádky skriptu či skriptů</a></p>
<p><a href="#k03">*** 3. Detekce řádků s&nbsp;&bdquo;mrtvým&ldquo; kódem</a></p>
<p><a href="#k04">*** 4. Tisk seznamu funkcí, které byly zavolány</a></p>
<p><a href="#k05">*** 5. Seznam se vzájemnými vztahy mezi funkcemi (které funkce jsou volány)</a></p>
<p><a href="#k06">*** 6. Úplné trasování, informace o relativních časech při trasování</a></p>
<p><a href="#k07">*** 7. Pomocný nástroj <strong>coverage</strong></a></p>
<p><a href="#k08">*** 8. Spuštění aplikace přes nástroj <strong>coverage</strong></a></p>
<p><a href="#k09">*** 9. Zobrazení výsledků</a></p>
<p><a href="#k10">*** 10. Anotace zdrojového kódu</a></p>
<p><a href="#k11">*** 11. Export výsledků do formátů JSON a XML</a></p>
<p><a href="#k12">*** 12. Zobrazení výsledků ve formě vygenerovaných HTML stránek</a></p>
<p><a href="#k13">*** 13. Interní struktura s&nbsp;informacemi o trasování (SQLite databáze)</a></p>
<p><a href="#k14">*** 14. </a></p>
<p><a href="#k15">*** 15. </a></p>
<p><a href="#k16">*** 16. </a></p>
<p><a href="#k17">*** 17. </a></p>
<p><a href="#k18">*** 18. </a></p>
<p><a href="#k19">*** 19. Repositář s&nbsp;demonstračními příklady</a></p>
<p><a href="#k20">*** 20. Odkazy na Internetu</a></p>



<p><a name="k01"></a></p>
<h2 id="k01">1. Standardní modul <strong>trace</strong></h2>

<pre>
<i>"""Výpočet faktoriálu."""</i>
&nbsp;
&nbsp;
def <strong>factorial</strong>(n):
    <i>"""Rekurzivní výpočet faktoriálu."""</i>
    assert isinstance(n, int), "Integer expected"
&nbsp;
    if n &lt; 0:
        return None
    if n == 0:
        return 1
    result = n * factorial(n-1)
&nbsp;
    assert isinstance(result, int), "Internal error in factorial computation"
    return result
&nbsp;
&nbsp;
def <strong>main</strong>():
    for n in range(0, 11):
        print(n, factorial(n))
&nbsp;
&nbsp;
if __name__ == "__main__":
    main()
</pre>



<p><a name="k02"></a></p>
<h2 id="k02">2. Zjištění počtu průchodů jednotlivými řádky skriptu či skriptů</h2>

<pre>
$ <strong>python3 -m trace --count -C . factorial.py</strong>
</pre>

<pre>
    1: """Výpočet faktoriálu."""
       
       
    1: def factorial(n):
           """Rekurzivní výpočet faktoriálu."""
   66:     assert isinstance(n, int), "Integer expected"
       
   66:     if n < 0:
               return None
   66:     if n == 0:
   11:         return 1
   55:     result = n * factorial(n-1)
       
   55:     assert isinstance(result, int), "Internal error in factorial computation"
   55:     return result
       
       
    1: def main():
   12:     for n in range(0, 11):
   11:         print(n, factorial(n))
       
       
    1: if __name__ == "__main__":
    1:     main()
</pre>



<p><a name="k03"></a></p>
<h2 id="k03">3. Detekce řádků s&nbsp;&bdquo;mrtvým&ldquo; kódem</h2>

<pre>
$ <strong>python3 -m trace --count -m -C . factorial.py</strong>
</pre>

<pre>
    1: """Výpočet faktoriálu."""
       
       
    1: def factorial(n):
           """Rekurzivní výpočet faktoriálu."""
   66:     assert isinstance(n, int), "Integer expected"
       
   66:     if n < 0:
>>>>>>         return None
   66:     if n == 0:
   11:         return 1
   55:     result = n * factorial(n-1)
       
   55:     assert isinstance(result, int), "Internal error in factorial computation"
   55:     return result
       
       
    1: def main():
   12:     for n in range(0, 11):
   11:         print(n, factorial(n))
       
       
    1: if __name__ == "__main__":
    1:     main()
</pre>

<pre>
$ python3 -m trace --count --summary -C . factorial.py
0 1
1 1
2 2
3 6
4 24
5 120
6 720
7 5040
8 40320
9 362880
10 3628800
lines   cov%   module   (path)
   14   100%   factorial   (factorial.py)
    1   100%   trace   (/usr/lib64/python3.6/trace.py)
</pre>



<p><a name="k04"></a></p>
<h2 id="k04">4. Tisk seznamu funkcí, které byly zavolány</h2>

$ python3 -m trace --listfuncs -C . factorial.py
0 1
1 1
2 2
3 6
4 24
5 120
6 720
7 5040
8 40320
9 362880
10 3628800

functions called:
filename: /usr/lib64/python3.6/trace.py, modulename: trace, funcname: _unsettrace
filename: factorial.py, modulename: factorial, funcname: <module>
filename: factorial.py, modulename: factorial, funcname: factorial
filename: factorial.py, modulename: factorial, funcname: main



<p><a name="k05"></a></p>
<h2 id="k05">5. Seznam se vzájemnými vztahy mezi funkcemi (které funkce jsou volány)</h2>

$ <strong>python3 -m trace --trackcalls -C . factorial.py</strong>
0 1
1 1
2 2
3 6
4 24
5 120
6 720
7 5040
8 40320
9 362880
10 3628800

calling relationships:

*** /usr/lib64/python3.6/trace.py ***
    trace.Trace.runctx -> trace._unsettrace
  --> factorial.py
    trace.Trace.runctx -> factorial.<module>

*** factorial.py ***
    factorial.<module> -> factorial.main
    factorial.factorial -> factorial.factorial
    factorial.main -> factorial.factorial



<p><a name="k06"></a></p>
<h2 id="k06">6. Úplné trasování, informace o relativních časech při trasování</h2>

python3 -m trace --trace -C . factorial.py > trace.txt

python3 -m trace --trace -g -C . factorial.py > timing



<p><a name="k07"></a></p>
<h2 id="k07">7. Pomocný nástroj <strong>coverage</strong></h2>

<pre>
$ <strong>pip3 install --user coverage</strong>
</pre>

<pre>
Collecting coverage
  Downloading https://files.pythonhosted.org/packages/5a/0d/a1cb46ee9b9f6369e2bcf72b8277654a806bdf3f17f724be24a3a72afdc3/coverage-5.4-cp38-cp38-manylinux2010_x86_64.whl (245kB)
     |████████████████████████████████| 245kB 1.9MB/s
Installing collected packages: coverage
Successfully installed coverage-5.4
</pre>

<pre>
$ <strong>coverage help</strong>
&nbsp;
Coverage.py, version 5.4 with C extension
Measure, collect, and report on code coverage in Python programs.
&nbsp;
usage: coverage &lt;command&gt; [options] [args]
&nbsp;
Commands:
    annotate    Annotate source files with execution information.
    combine     Combine a number of data files.
    debug       Display information about the internals of coverage.py
    erase       Erase previously collected coverage data.
    help        Get help on using coverage.py.
    html        Create an HTML report.
    json        Create a JSON report of coverage results.
    report      Report coverage stats on modules.
    run         Run a Python program and measure code execution.
    xml         Create an XML report of coverage results.
&nbsp;
Use "coverage help &lt;command&gt;" for detailed help on any command.
Full documentation is at https://coverage.readthedocs.io
</pre>



<p><a name="k08"></a></p>
<h2 id="k08">8. Spuštění aplikace přes nástroj <strong>coverage</strong></h2>

<pre>
$ <strong>coverage run factorial.py</strong>
&nbsp;
0 1
1 1
2 2
3 6
4 24
5 120
6 720
7 5040
8 40320
9 362880
10 3628800
</pre>



<p><a name="k09"></a></p>
<h2 id="k09">9. Zobrazení výsledků</h2>

<pre>
$ <strong>coverage report</strong>
&nbsp;
Name           Stmts   Miss  Cover
----------------------------------
factorial.py      14      1    93%
----------------------------------
TOTAL             14      1    93%
</pre>

<pre>
$ <strong>coverage report</strong>
&nbsp;
Name                                     Stmts   Miss  Cover
------------------------------------------------------------
src/gui/__init__.py                          0      0   100%
src/gui/canvas.py                            7      4    43%
src/gui/dialogs/__init__.py                  0      0   100%
src/gui/dialogs/about_dialog.py              4      1    75%
src/gui/dialogs/fractal_type_dialog.py      28     20    29%
src/gui/dialogs/help_dialog.py              34     28    18%
src/gui/icons.py                            19      8    58%
src/gui/main_window.py                      23     13    43%
src/gui/menubar.py                          36     29    19%
src/icons/__init__.py                        0      0   100%
src/icons/application_exit.py                1      0   100%
src/icons/edit.py                            1      0   100%
src/icons/file_open.py                       1      0   100%
src/icons/file_save.py                       1      0   100%
src/icons/file_save_as.py                    1      0   100%
src/icons/fractal_new.py                     1      0   100%
src/icons/help_about.py                      1      0   100%
src/icons/help_faq.py                        1      0   100%
src/svitava-gui.py                           5      1    80%
------------------------------------------------------------
TOTAL                                      164    104    37%
</pre>

<pre>
$ <strong>coverage report --skip-covered</strong>
&nbsp;
Name                                     Stmts   Miss  Cover
------------------------------------------------------------
src/gui/canvas.py                            7      4    43%
src/gui/dialogs/about_dialog.py              4      1    75%
src/gui/dialogs/fractal_type_dialog.py      28     20    29%
src/gui/dialogs/help_dialog.py              34     28    18%
src/gui/icons.py                            19      8    58%
src/gui/main_window.py                      23     13    43%
src/gui/menubar.py                          36     29    19%
src/svitava-gui.py                           5      1    80%
------------------------------------------------------------
TOTAL                                      164    104    37%
&nbsp;
11 files skipped due to complete coverage.
</pre>



<p><a name="k10"></a></p>
<h2 id="k10">10. Anotace zdrojového kódu</h2>

<pre>
$ <strong>coverage annotate</strong>
</pre>

<pre>
&gt; """Výpočet faktoriálu."""
&nbsp;
&gt; def factorial(n):
&gt;     """Rekurzivní výpočet faktoriálu."""
&gt;     assert isinstance(n, int), "Integer expected"
&nbsp;
&gt;     if n &lt; 0:
!         return None
&gt;     if n == 0:
&gt;         return 1
&gt;     result = n * factorial(n-1)
&nbsp;
&gt;     assert isinstance(result, int), "Internal error in factorial computation"
&gt;     return result
&nbsp;
&nbsp;
&gt; def main():
&gt;     for n in range(0, 11):
&gt;         print(n, factorial(n))
&nbsp;
&nbsp;
&gt; if __name__ == "__main__":
&gt;     main()
</pre>


<p><a name="k11"></a></p>
<h2 id="k11">11. Export výsledků do formátů JSON a XML</h2>

<pre>
$ <strong>coverage json</strong>
</pre>

<pre>
{"meta": {"version": "5.4", "timestamp": "2021-02-05T09:37:22.563357", "branch_coverage": false, "show_contexts": false}, "files": {"factorial.py": {"executed_lines": [1, 3, 5, 7, 9, 10, 11, 13, 14, 17, 18, 19, 22, 23], "summary": {"covered_lines": 13, "num_statements": 14, "percent_covered": 92.85714285714286, "missing_lines": 1, "excluded_lines": 0}, "missing_lines": [8], "excluded_lines": []}}, "totals": {"covered_lines": 13, "num_statements": 14, "percent_covered": 92.85714285714286, "missing_lines": 1, "excluded_lines": 0}}
</pre>

<pre>
{
  "meta": {
    "version": "5.4",
    "timestamp": "2021-02-05T09:37:22.563357",
    "branch_coverage": false,
    "show_contexts": false
  },
  "files": {
    "factorial.py": {
      "executed_lines": [
        1,
        3,
        5,
        7,
        9,
        10,
        11,
        13,
        14,
        17,
        18,
        19,
        22,
        23
      ],
      "summary": {
        "covered_lines": 13,
        "num_statements": 14,
        "percent_covered": 92.85714285714286,
        "missing_lines": 1,
        "excluded_lines": 0
      },
      "missing_lines": [
        8
      ],
      "excluded_lines": []
    }
  },
  "totals": {
    "covered_lines": 13,
    "num_statements": 14,
    "percent_covered": 92.85714285714286,
    "missing_lines": 1,
    "excluded_lines": 0
  }
}
</pre>

<pre>
$ <strong>coverge xml</strong>
</pre>

<pre>
&lt;?xml version="1.0" ?&gt;
&lt;coverage version="5.4" timestamp="1612601186209" lines-valid="14" lines-covered="13" line-rate="0.9286" branches-covered="0" branches-valid="0" branch-rate="0" complexity="0"&gt;
        &lt;!-- Generated by coverage.py: https://coverage.readthedocs.io --&gt;
        &lt;!-- Based on https://raw.githubusercontent.com/cobertura/web/master/htdocs/xml/coverage-04.dtd --&gt;
        &lt;sources&gt;
                &lt;source&gt;/home/tester&lt;/source&gt;
        &lt;/sources&gt;
        &lt;packages&gt;
                &lt;package name="." line-rate="0.9286" branch-rate="0" complexity="0"&gt;
                        &lt;classes&gt;
                                &lt;class name="factorial.py" filename="factorial.py" complexity="0" line-rate="0.9286" branch-rate="0"&gt;
                                        &lt;methods/&gt;
                                        &lt;lines&gt;
                                                &lt;line number="3" hits="1"/&gt;
                                                &lt;line number="5" hits="1"/&gt;
                                                &lt;line number="7" hits="1"/&gt;
                                                &lt;line number="8" hits="0"/&gt;
                                                &lt;line number="9" hits="1"/&gt;
                                                &lt;line number="10" hits="1"/&gt;
                                                &lt;line number="11" hits="1"/&gt;
                                                &lt;line number="13" hits="1"/&gt;
                                                &lt;line number="14" hits="1"/&gt;
                                                &lt;line number="17" hits="1"/&gt;
                                                &lt;line number="18" hits="1"/&gt;
                                                &lt;line number="19" hits="1"/&gt;
                                                &lt;line number="22" hits="1"/&gt;
                                                &lt;line number="23" hits="1"/&gt;
                                        &lt;/lines&gt;
                                &lt;/class&gt;
                        &lt;/classes&gt;
                &lt;/package&gt;
        &lt;/packages&gt;
&lt;/coverage&gt;
</pre>



<p><a name="k12"></a></p>
<h2 id="k12">12. Zobrazení výsledků ve formě vygenerovaných HTML stránek</h2>

coverage html


<p><a name="k13"></a></p>
<h2 id="k13">13. Interní struktura s&nbsp;informacemi o trasování (SQLite databáze)</h2>

$ od -t x1 -N 1800 .coverage 
0000000 53 51 4c 69 74 65 20 66 6f 72 6d 61 74 20 33 00
0000020 10 00 01 01 00 40 20 20 00 00 00 0a 00 00 00 0d
0000040 00 00 00 00 00 00 00 00 00 00 00 07 00 00 00 04
0000060 00 00 00 00 00 00 00 00 00 00 00 01 00 00 00 00
0000100 00 00 00 00 00 00 00 00 00 00 00 00 00 00 00 00
0000120 00 00 00 00 00 00 00 00 00 00 00 00 00 00 00 0a
0000140 00 2e 4b 90 0d 0f 56 00 0c 06 96 00 0f 5e 0d 58
0000160 0f 2d 0c a5 0d 2f 0b da 0c 76 09 93 0b a7 07 6a
0000200 09 6c 06 96 00 00 00 00 00 00 00 00 00 00 00 00
0000220 00 00 00 00 00 00 00 00 00 00 00 00 00 00 00 00
*
0003220 00 00 00 00 00 00 81 51 0c 07 17 19 19 01 82 7d
0003240 74 61 62 6c 65 74 72 61 63 65 72 74 72 61 63 65
0003260 72 0d 43 52 45 41 54 45 20 54 41 42 4c 45 20 74
0003300 72 61 63 65 72 20 28 0a 20 20 20 20 2d 2d 20 41
0003320 20 72 6f 77 20 70 65 72 20 66 69 6c 65 20 69 6e
0003340 64 69 63 61 74 69 6e 67 20 74 68 65 20 74 72 61
0003360 63 65 72 20 75 73 65 64 20 66 6f 72 20 74 68 61
0003400 74 20 66 69 6c 65 2e 0a
0003410



<p><a name="k11"></a></p>
<h2 id="k11">11. Nástroj pycrunch-pytrace</h2>



<p><a name="k12"></a></p>
<h2 id="k12">12. Instalace nástroje pycrunch-pytrace</h2>

<pre>
$ pip install --user pycrunch-trace
Collecting pycrunch-trace
  Downloading https://files.pythonhosted.org/packages/ef/30/96a3666b1a88399183f8fad6fc930f325fdd16afad837063814005573c80/pycrunch-trace-0.1.5.tar.gz (44kB)
     |████████████████████████████████| 51kB 184kB/s
Collecting Cython
  Downloading https://files.pythonhosted.org/packages/9f/05/959e78f2aeade1c9e85a7adc4c376f454ecaeb4cb6b079ca7a85684b69c1/Cython-0.29.21-cp38-cp38-manylinux1_x86_64.whl (1.9MB)
     |████████████████████████████████| 1.9MB 339kB/s
Collecting jsonpickle
  Downloading https://files.pythonhosted.org/packages/77/a7/c2f527ddce3155ae9e008385963c2325cbfd52969f8b38efa2723e2af4af/jsonpickle-1.5.1-py2.py3-none-any.whl
Collecting PyYAML
  Downloading https://files.pythonhosted.org/packages/70/96/c7245e551b1cb496bfb95840ace55ca60f20d3d8e33d70faf8c78a976899/PyYAML-5.4.1-cp38-cp38-manylinux1_x86_64.whl (662kB)
     |████████████████████████████████| 665kB 4.5MB/s
Collecting protobuf==3.11.3
  Downloading https://files.pythonhosted.org/packages/9a/71/5cdb5ed762a537eac39097ae6ecf8785e276b5044efe99b8e53cb3addd7f/protobuf-3.11.3-cp38-cp38-manylinux1_x86_64.whl (1.3MB)
     |████████████████████████████████| 1.3MB 4.6MB/s
Requirement already satisfied: setuptools in /usr/lib/python3.8/site-packages (from protobuf==3.11.3-&gt;pycrunch-trace) (41.6.0)
Requirement already satisfied: six&gt;=1.9 in /usr/lib/python3.8/site-packages (from protobuf==3.11.3-&gt;pycrunch-trace) (1.14.0)
Installing collected packages: Cython, jsonpickle, PyYAML, protobuf, pycrunch-trace
    Running setup.py install for pycrunch-trace ... done
Successfully installed Cython-0.29.21 PyYAML-5.4.1 jsonpickle-1.5.1 protobuf-3.11.3 pycrunch-trace-0.1.5
</pre>



<p><a name="k13"></a></p>
<h2 id="k13">13. </h2>



<p><a name="k14"></a></p>
<h2 id="k14">14. </h2>



<p><a name="k15"></a></p>
<h2 id="k15">15. </h2>



<p><a name="k16"></a></p>
<h2 id="k16">16. </h2>



<p><a name="k17"></a></p>
<h2 id="k17">17. </h2>



<p><a name="k18"></a></p>
<h2 id="k18">18. </h2>



<p><a name="k19"></a></p>
<h2 id="k19">19. Repositář s&nbsp;demonstračními příklady</h2>



<p><a name="k20"></a></p>
<h2 id="k20">20. Odkazy na Internetu</h2>

<ol>

<li>Stránka projektu PyTrace<br />
<a href="https://pytrace.com/">https://pytrace.com/</a>
</li>

<li>Nástroj pycrunch-trace na PyPi<br />
<a href="https://pypi.org/project/pycrunch-trace/">https://pypi.org/project/pycrunch-trace/</a>
</li>

<li>Repositář nástroje pycrunch-trace na GitHubu<br />
<a href="https://github.com/gleb-sevruk/pycrunch-trace">https://github.com/gleb-sevruk/pycrunch-trace</a>
</li>

<li>Repositář serveru pycrunch-tracing-webui na GitHubu<br />
<a href="https://github.com/gleb-sevruk/pycrunch-tracing-webui">https://github.com/gleb-sevruk/pycrunch-tracing-webui</a>
</li>

</ol>



<p></p><p></p>
<p><small>Autor: <a href="http://www.fit.vutbr.cz/~tisnovpa">Pavel Tišnovský</a> &nbsp; 2021</small></p>
</body>
</html>

